:100000000C94F5030C9421040C9421040C94210409
:100010000C9421040C9421040C9421040C942104CC
:100020000C9421040C9421040C9421040C942104BC
:100030000C9421040C9421040C9421040C942104AC
:100040000C9421040C9421040C9421040C9421049C
:100050000C9421040C9421040C9421040C94ED14B0
:100060000C9421040C9414170C94F4170C94210490
:100070000C9421040C9421040C9421040C9421046C
:100080000C9421040C9421040C9421040C9421045C
:100090000C944C170C9433180C9421040C942104E8
:1000A0000C9421040C9421040C9421040C9421043C
:1000B0000C9421040C9421040C9421040C9421042C
:1000C0000C9421040C9421040C9421040C948417A6
:1000D0000C9472180C9421040C94BC170C94B11855
:1000E0000C94210400002100240027002A002D0088
:1000F0003000330001010000040107010A01000083
:100100002200250028002B002E00310034000201BF
:100110000000050108010B0100002000230026005B
:1001200029002C002F00320000010000030106010D
:10013000090105050505070508080808020202026D
:100140000A0A080804040404010101010101010173
:100150000303030303030303040707070C0C0C0C3E
:100160000C0C0C0C02020202060606060606060627
:100170000B0B0B0B0B0B0B0B0102102020080810B4
:100180002040102040800201020108040201010207
:1001900004081020408080402010080402018004E0
:1001A000020180402010080402010804020101023B
:1001B0000408102040800102040810204080000044
:1001C000090A02080B0C0D070603040100000000D9
:1001D000000000000000000000000000000000001F
:1001E0000000000000000000000011100F000000DF
:1001F00000000000000000000000000000000000FF
:100200000000000000000000003E5B4F5B3E3E6BC4
:100210004F6B3E1C3E7C3E1C183C7E3C181C577DA0
:10022000571C1C5E7F5E1C00183C1800FFE7C3E7EC
:10023000FF0018241800FFE7DBE7FF30483A060EFE
:100240002629792926407F050507407F05253F5A45
:100250003CE73C5A7F3E1C1C08081C1C3E7F1422B5
:100260007F22145F5F005F5F06097F017F00668960
:10027000956A606060606094A2FFA29408047E04A6
:100280000810207E201008082A1C08081C2A0808CC
:100290001E101010100C1E0C1E0C30383E3830068C
:1002A0000E3E0E06000000000000005F0000000788
:1002B000000700147F147F14242A7F2A12231308B6
:1002C000646236495620500008070300001C224192
:1002D000000041221C002A1C7F1C2A08083E080836
:1002E00000807030000808080808000060600020E6
:1002F000100804023E5149453E00427F40007249C9
:100300004949462141494D331814127F102745456C
:1003100045393C4A49493141211109073649494982
:1003200036464949291E00001400000040340000F0
:100330000008142241141414141400412214080259
:10034000015909063E415D594E7C1211127C7F49CC
:100350004949363E414141227F4141413E7F494921
:1003600049417F090909013E414151737F0808084D
:100370007F00417F41002040413F017F081422411E
:100380007F404040407F021C027F7F0408107F3E78
:100390004141413E7F090909063E4151215E7F09E5
:1003A000192946264949493203017F01033F40404C
:1003B000403F1F2040201F3F4038403F6314081437
:1003C0006303047804036159494D43007F4141416F
:1003D0000204081020004141417F04020102044050
:1003E00040404040000307080020545478407F28D4
:1003F0004444383844444428384444287F385454CA
:10040000541800087E090218A4A49C787F080404EC
:100410007800447D40002040403D007F102844008B
:1004200000417F40007C047804787C08040478381C
:1004300044444438FC1824241818242418FC7C084C
:10044000040408485454542404043F44243C4040C9
:10045000207C1C2040201C3C4030403C442810287C
:10046000444C9090907C4464544C440008364100C5
:100470000000770000004136080002010204023C3F
:100480002623263C1EA1A161123A4040207A38540E
:100490005455592155557941215454784121555489
:1004A000784020545579400C1E52721239555555DA
:1004B00059395454545939555454580000457C41C5
:1004C0000002457D420001457C40F0292429F0F0DE
:1004D000282528F07C545545002054547C547C0A2F
:1004E000097F4932494949323248484832324A48FC
:1004F00048303A4141217A3A42402078009DA0A0FC
:100500007D39444444393D4040403D3C24FF24244F
:10051000487E4943662B2FFC2F2BFF0929F620C06C
:10052000887E090320545479410000447D413048BD
:10053000484A32384040227A007A0A0A727D0D1900
:10054000317D2629292F28262929292630484D4062
:1005500020380808080808080808382F10C8ACBA5E
:100560002F102834FA00007B000008142A142222DD
:10057000142A1408AA005500AAAA55AA55AA0000D0
:1005800000FF00101010FF00141414FF001010FFE3
:1005900000FF1010F010F0141414FC001414F700F5
:1005A000FF0000FF00FF1414F404FC141417101FC4
:1005B00010101F101F1414141F00101010F0000052
:1005C00000001F101010101F10101010F01000006D
:1005D00000FF101010101010101010FF100000007D
:1005E000FF140000FF00FF00001F10170000FC04B4
:1005F000F414141710171414F404F40000FF00F797
:1006000014141414141414F700F7141414171410F9
:10061000101F101F141414F4141010F010F0000028
:100620001F101F0000001F14000000FC140000F049
:1006300010F01010FF10FF141414FF141010101FEE
:1006400000000000F010FFFFFFFFFFF0F0F0F0F0FF
:10065000FFFFFF0000000000FFFF0F0F0F0F0F381C
:10066000444438447C2A2A3E147E02020606027E56
:10067000027E0263554941633844443C04407E2075
:100680001E2006027E020299A5E7A5991C2A492A86
:100690001C4C7201724C304A4D4D30304878483015
:1006A000BC625A463D3E494949007E0101017E2A0D
:1006B0002A2A2A2A44445F444440514A4440404440
:1006C0004A51400000FF0103E080FF000008086B72
:1006D0006B083612362436060F090F06000018186C
:1006E0000000001010003040FF0101001F01011E3A
:1006F00000191D1712003C3C3C3C00000000000F9C
:100700000180961180FFB103012C2DB203012C2D25
:10071000B306012C2D012C2DB40107C003A20284C5
:10072000C101C5C2020A00C3028A2AC4028AEEC5F8
:10073000010E20003601C83A0105022A0400020019
:10074000812B04000100A0022A040000007F2B047A
:100750000000009F04E010021C07123732292D29E7
:10076000252B3900010310E110031D07062E2C294B
:100770002D2E2E373F0000021013800A29806412AC
:100780000180321180FF3A81050AB1830006030A15
:10079000360108B6021502B40100C08202700AC117
:1007A0000105C2020102C5823C380AFC021115E0B3
:1007B0001009160920211B131917151E2B040502F9
:1007C0000EE1900B14081E221D181E1B1A242B0666
:1007D00006020F0A2A04000200812B040002008195
:1007E00013800A2980FF67041B1A11241FBECFEF54
:1007F000D1E2DEBFCDBF00E00CBF16E0A0E0B2E06A
:10080000E6E4FCE400E00BBF02C007900D92A235C5
:10081000B107D9F71BE0A2E5B6E001C01D92AF39E0
:10082000B107E1F717E0CAEED7E004C02297FE0156
:100830000E941D26C63ED107C9F70E949E070C9450
:1008400089250C940000DC0180911005E82FF0E070
:10085000CA018E1B9F0BA817B9074CF0CA018E0F57
:100860009F1F8A179B071CF06217730771F0C9015D
:100870008E1B9F0B6817790764F0E20FF31FE617D2
:10088000F7073CF0A417B50721F410920F0580E09C
:10089000089581E008958091B808E82FF0E08091F4
:1008A000B70834E0EE0FFF1F3A95E1F7E80FF11DAE
:1008B000E75BF84F80816AE00E94AB25963031F407
:1008C0001082809110058F5F809310050895CF935B
:1008D000DF93CCE5D6E0CE010E949814219686E005
:1008E000C438D807C1F7C4E8D6E0CE010E94930E01
:1008F0002D9687E0C734D807C1F789E898E066E00D
:1009000047E028E00E94BF24DF91CF9108958F92A5
:100910009F92AF92BF92CF92DF92EF92FF920F938E
:100920001F936B017C0149015A0103E21BE0C801DE
:1009300060E072E00E94AD1C60915606709157060F
:10094000C8014AE050E00E941F1CC80162E172E049
:100950000E94AD1CC801B701A6012AE030E00E9448
:100960000B1CC80162E272E00E94AD1CC801B50117
:10097000A4012AE030E00E940B1CC701B60120E46C
:100980003DE043E050E00E948C25A50194010E94C7
:10099000DE258091560690915706820F931F909303
:1009A000570680935606C8016EE272E00E94AD1CA5
:1009B0006091560670915706C8014AE050E00E94C7
:1009C0001F1C1F910F91FF90EF90DF90CF90BF9071
:1009D000AF909F908F9008950F931F9309E818E0B0
:1009E000C8016FEF7FEF40E050E00E94142180913A
:1009F000B6080E94A712C80160E070E04FEF5FEFF9
:100A00000E9414218091B5080E94A7128091B50818
:100A10008093B6081F910F91089522E080309207CD
:100A20003CF48091B508813079F41092B5080AC081
:100A30008050924049F08091B508882329F481E0E4
:100A40008093B5080E94EC0466E970E080E090E0D5
:100A50000E94431508950F931F930E949C1503E273
:100A60001BE0C80140E855E260E070E00E94F01829
:100A70000E94881489E060E00E94FE1589E061E030
:100A80000E94B116C8016DE372E00E94B01C1F9174
:100A90000F9108958091B7086091B80840E058EF31
:100AA0000E94FF118091B7088093B9088091B8081F
:100AB0008093BA080895EF92FF920F931F93CF93FC
:100AC000DF93F82EE62E8091BB088F5F8093BB08E2
:100AD00083E29BE062E972E00E94AD1C83E29BE04E
:100AE0006091BB084AE050E00E943C1CE6ECF8E054
:100AF000C0E0D0E08081882369F583E29BE06EE965
:100B000072E00E94AD1C83E29BE0BE014AE050E02F
:100B10000E949A1C83E29BE064EA72E00E94B01C8F
:100B20008E01000F111F0C0F1D1F000F111F000F52
:100B3000111FF801E454F74F81E08287F082E182CF
:100B40000E9435150254174FF80160837183828328
:100B5000938305C021963C96C530D10559F6DF91A7
:100B6000CF911F910F91FF90EF9008950F931F93D6
:100B7000CF93DF9380E00E94B9148C0181E00E9442
:100B8000B914EC0189E00E94E416892B99F4809154
:100B9000BB08853078F483E29BE060EB72E00E9452
:100BA000B01C6091B8088091B70890E070E00E9496
:100BB0005B0593C082E0C130D80734F082E0C138D1
:100BC000D8070CF441C007C080E092E08C1B9D0B5D
:100BD00081389105CCF182E0C130D80754F0809182
:100BE000B70890E08F309105B4F49C012F5F3F4F20
:100BF00014C0C050D24089F08091B70890E00097AF
:100C000019F420E030E009C08131910524F49C0101
:100C10002150304002C02FE030E0E091B808F0E011
:100C2000B4E0EE0FFF1FBA95E1F7E20FF31FE75BA9
:100C3000F84F80816AE00E94AB25923010F0963028
:100C400019F42093B70849C082E00130180734F046
:100C500082E0013818070CF442C007C080E092E03F
:100C6000801B910B81389105D4F182E00130180787
:100C700054F08091B80890E083319105B4F49C0160
:100C80002F5F3F4F14C00050124089F08091B80888
:100C900090E0009719F420E030E009C0853191051B
:100CA00024F49C012150304002C023E130E08091C7
:100CB000B708F901A4E0EE0FFF1FAA95E1F7E80FCE
:100CC000F11DE75BF84F80816AE00E94AB2592300E
:100CD00010F0963021F42093B80881E001C080E044
:100CE000DF91CF911F910F910895EF92FF920F9393
:100CF0001F93CF93DF937C018B0180911005E70157
:100D0000C81BD10907C089E497E06C2F402F0E94CF
:100D10002012219680911005482F50E0CA01880FBB
:100D2000991F8E0D9F1DC817D9076CF3E801C41BCE
:100D3000D50B07C089E497E06E2D4C2F0E9420123E
:100D400021968091100590E0880F991F800F911FC8
:100D5000C817D9077CF3DF91CF911F910F91FF90B6
:100D6000EF9008950F931F93282F462F89E497E063
:100D7000622F0E9420128091BB0881508093BB0893
:100D800003E21BE0C80162E972E00E94AD1CC801E9
:100D90006091BB084AE050E00E943C1C1F910F91FB
:100DA000089589E497E06091B9084091BA080E94DB
:100DB00020120E944A050895AF92BF92CF92DF920F
:100DC000EF92FF920F931F93CF93DF93CCEBD8E07A
:100DD000AA24BB24DD24D3940E9435157B018C0109
:100DE0008A85882309F451C08B85882309F04DC07A
:100DF0008A819B81AC81BD81A8019701281B390B99
:100E00004A0B5B0BDA01C901895E9340A040B040F8
:100E1000B8F183E29BE06EE972E00E94AD1C83E2D0
:100E20009BE0B5014AE050E00E949A1C83E29BE0FF
:100E30006DEB72E00E94B01C83E29BE069EC72E013
:100E40000E94AD1C8A819B81AC81BD81E81AF90AA0
:100E50000A0B1B0B83E29BE0B801A7012AE030E0FC
:100E60000E940B1C6981888190E070E00E94B206AC
:100E7000DB860E9435156E837F83888799874AC0F9
:100E8000888169810E94DA1145C08B85882309F425
:100E900041C08E819F81A885B985E81AF90A0A0B9D
:100EA0001B0B4BEFE416F1040105110588F01B86BE
:100EB0001A8689E497E068814981209110050E9493
:100EC000F30E6981888190E070E00E94750622C06F
:100ED00088816981409110050E947D1189E497E025
:100EE00064E876E0409147072881098158E4E52EBF
:100EF00057E0F52EC09010050E94CA0A6091B8080C
:100F0000488129818091B70890E070E050E030E09E
:100F10000E9423040894A11CB11C2C9655E0A51630
:100F2000B10409F059CFDF91CF911F910F91FF903C
:100F3000EF90DF90CF90BF90AF9008958F929F92E7
:100F4000AF92BF92CF92DF92EF92FF920F931F93D7
:100F5000CF93DF930E942B050E9435156B0183E030
:100F600080934707C0E0D0E0EE24FF2499249394B7
:100F7000F6E08F2EA12CE2E0BE2E209709F052C0A1
:100F800089E898E060E070E00E94D22289E898E069
:100F900060E070E04FEF5FEF0E94142180E00E945C
:100FA000A71289E898E06FEF7FEF40E050E00E94E1
:100FB00014218FEF0E94A71281E00E94A71280E007
:100FC0000E94B9149C0182E0213038072CF092E095
:100FD0002138390754F006C0C501821B930B8138B4
:100FE00091051CF0C9010E940D0589E00E94E416DC
:100FF000892B39F48091B508882319F4C2E0D0E038
:1010000002C0C0E0D0E089E00E94E416892B39F4E8
:101010008091B508813019F4C1E0D0E0AECF2097BF
:1010200071F2ABCFC130D10561F40E94361389E073
:101030000E94E416892BD9F71092B5081092B608D1
:1010400039C1C230D10509F057C01092B8081092CA
:10105000B7081092BB0890920F05EF28C1F4809159
:1010600047078D3018F48D5F8093470789E497E038
:101070000E94C60E89E497E062E042E00E94D90E29
:101080008CE596E069E477E00E9431140AC0809212
:101090004707909210058CE596E069E477E00E949E
:1010A000D913809147078093480789E497E00E940D
:1010B000641283E29BE06AED72E00E94B01C84E857
:1010C00096E06091470749E457E00E94720D84E87A
:1010D00096E0609147070E94DC0D0E94D1060E94B5
:1010E000351560935206709353068093540690937F
:1010F0005506C3E0D0E0ADC0C330D10509F0C7C08C
:101100000E94B605182F0E944B040E94DC06112392
:1011100011F00E94D10689E497E064E876E04091FE
:1011200047070E94FF0D8091B708E091B808F0E0F2
:1011300074E0EE0FFF1F7A95E1F7E80FF11DE75B12
:10114000F84F80818A3010F010920F0580910F05C2
:10115000882309F054C0E6ECF8E0118210823C9636
:1011600089E0E230F807C9F789E497E064E876E0BF
:10117000409147070E94910CE0904707FF2480911F
:101180004807E81AF1080027F7FC0095102FE092B5
:101190005806F092590600935A0610935B060E9477
:1011A00035159B01AC018091520690915306A09198
:1011B0005406B0915506281B390B4A0B5B0BC8012E
:1011C000B7010E948704609156067091570680E02F
:1011D00090E00E94E012609156067091570683E2FB
:1011E0009BE04AE050E00E941F1C109257061092AC
:1011F0005606C4E0D0E061E0E62EF12CBECE809130
:101200004807882349F5E6ECF8E0118210823C9605
:1012100099E0E230F907C9F70E947D12E090470794
:10122000FF2400E010E00E9435159B01AC01809185
:10123000520690915306A0915406B0915506281B72
:10124000390B4A0B5B0BC801B7010E948704C4E04D
:10125000D0E0EE24FF2491CE0E943515CB018C19ED
:101260009D09883791056CF488E790E0C80ED91E77
:10127000C61AD70AB601882777FD8095982F0E9455
:1012800043150E9435156B01C3E0D0E076CE89E0AE
:101290000E94E416892B09F070CE89E898E060E09E
:1012A00070E00E94D22291E0E916F10419F0C2E048
:1012B000D0E063CEC0E0D0E060CE0F931F93CF9319
:1012C000DF93EC0150E094E0440F551F9A95E1F74D
:1012D000460F511D30E021503040A0E0B0E00DE05D
:1012E00010E024C0B9016A0F7B1F75956795609F58
:1012F000F001619FF00D709FF00D1124EC0FFD1FA8
:101300008485882329F0808191818417950799F03D
:10131000808191814817590724F49B012150304066
:1013200005C08417950714F4DB0111962A173B07B3
:10133000CCF66FEF7FEFCB01DF91CF911F910F9133
:1013400008952F923F924F925F926F927F928F9269
:101350009F92AF92BF92CF92DF92EF92FF920F9344
:101360001F93DF93CF93CDB7DEB72D970FB6F894C9
:10137000DEBF0FBECDBF3C012B018DE090E0489F4A
:101380009001499F300D589F300D1124260D371DB7
:10139000689F6001699FD00C789FD00C112483EF67
:1013A0009FEFC80ED91EC60CD71CDE011196F9019D
:1013B0008DE001900D928150E1F7D901F6018DE0A9
:1013C00001900D928150E1F7D601FE0131968DE03A
:1013D00001900D928150E1F7C6010E94B80E1C01E8
:1013E0002EEF822E2FEF922E840C951CAA24BB2464
:1013F00041C08DE090E0A89E7001A99EF00CB89EBF
:10140000F00C1124E60CF71CC7010E94B80E281638
:10141000390624F00894A11CB11C2CC08DE090E08A
:10142000889E8001899E100D989E100D1124060D36
:10143000171DC8010E94B80E2816390624F4089416
:101440008108910817C0DE011196F7018DE0019027
:101450000D928150E1F7D701F8018DE001900D92D6
:101460008150E1F7D801FE0131968DE001900D9297
:101470008150E1F7A814B9040CF4BBCFC6010E9457
:10148000B80E8C018DE090E0889E7001899EF00C72
:10149000989EF00C1124E60CF71CC7010E94B80EB0
:1014A00008171907CCF4DE011196F7018DE00190C1
:1014B0000D928150E1F7D701F6018DE001900D9278
:1014C0008150E1F7D601FE0131968DE001900D9239
:1014D0008150E1F7B40103C0B20161507040CB010B
:1014E0002D960FB6F894DEBF0FBECDBFCF91DF9122
:1014F0001F910F91FF90EF90DF90CF90BF90AF9032
:101500009F908F907F906F905F904F903F902F9023
:101510000895CF92DF92EF92FF920F931F93CF9394
:10152000DF937C018B014DE0C42ED12C02301105DC
:1015300044F1A80155954795C701B8010E94A1093A
:10154000EC01C701BE010E94890ACC9DF001CD9D2E
:10155000F00DDC9DF00D1124EE0DFF1D8485882318
:1015600081F02196CC9DC001CD9D900DDC9D900D0C
:1015700011242197E80EF91EC095D0950C0F1D1F60
:10158000D5CFDF91CF911F910F91FF90EF90DF901A
:10159000CF9008952F923F924F925F926F927F92D9
:1015A0008F929F92AF92BF92CF92DF92EF92FF9273
:1015B0000F931F93DF93CF9300D00F920F92CDB76D
:1015C000DEB71C015B01142F422E502EC98283E22C
:1015D0009BE065EE72E00E94B01CC501612F70E0D7
:1015E0000E94890A10E074E0000F111F7A95E1F75C
:1015F000020D131D642C7724F801E60DF71D808180
:101600008A30A8F1C501642D452DF70120810E9483
:101610005D094C01FFEF8F3F9F0731F483E29BE0B0
:1016200068EF72E00E94B01C8DE090E09C01829E09
:10163000C001839E900D929E900D11248A0D9B1DDA
:1016400060E00E94C30EF701808181508083809109
:10165000F8089091F9088C599F4F9093F90880935E
:10166000F808F801E60DF71D80818A508083DD249B
:10167000D394252D30E03B832A8331C18D2C9924CE
:10168000C401860D971D80319105B4F142C0C5019A
:101690006C2D452DF70120810E945D099C01FFEF13
:1016A0008F3F9F0739F483E29BE069E173E00E947A
:1016B000B01C29C04DE050E0249FC001259F900D33
:1016C000349F900D11248A0D9B1D60E00E94C30E73
:1016D000F7018081815080838091F8089091F9080A
:1016E0008C599F4F9093F9088093F808EC81FD8105
:1016F00080818A50808307C09801280F391F3D835D
:101700002C83CD2CC40CEC81FD8180818A3008F0C3
:10171000BECF4D14B0F544C0C5016C2D452DF70169
:1017200020810E945D099C01FFEF8F3F9F0739F4E4
:1017300083E29BE068E373E00E94B01C2BC04DE0A5
:1017400050E0249FC001259F900D349F900D1124DF
:101750008A0D9B1D60E00E94C30EF70180818150BD
:1017600080838091F8089091F9088C599F4F90934D
:10177000F9088093F808EC81FD8180818A5080838C
:1017800009C0930128193909200F311F3D832C838B
:10179000C42CCD18EC81FD8180818A3008F0BCCF4B
:1017A0008A819B81880D991D843191050CF048C078
:1017B0009C0164E0220F331F6A95E1F7220D331D6F
:1017C000260D371D3D832C83CD2CC50C34C0C5019F
:1017D000642D4C2DF70120810E945D099C01FFEFD3
:1017E0008F3F9F0739F483E29BE068E573E00E9436
:1017F000B01C21C04DE050E0249FC001259F900DFA
:10180000349F900D11248A0D9B1D60E00E94C30E31
:10181000F7018081815080838091F8089091F908C8
:101820008C599F4F9093F9088093F808EC81FD81C3
:1018300080818A508083EC81FD8180818A3038F6F6
:10184000D51408F04BC02A813B812819390954E08E
:10185000220F331F5A95E1F7220D331D260D371D38
:101860003D832C83952C9D1834C0C501642D492DD2
:10187000F70120810E945D099C01FFEF8F3F9F07C8
:1018800039F483E29BE065E773E00E94B01C21C05D
:101890004DE050E0249FC001259F900D349F900D96
:1018A00011248A0D9B1D60E00E94C30EF701808108
:1018B000815080838091F8089091F9088C599F4F4E
:1018C0009093F9088093F808EC81FD8180818A501B
:1018D0008083EC81FD8180818A3038F6D394F98150
:1018E000FD1508F0CBCE83E29BE064E973E00E9433
:1018F000B01C0F900F900F900F900F90CF91DF9131
:101900001F910F91FF90EF90DF90CF90BF90AF901D
:101910009F908F907F906F905F904F903F902F900F
:101920000895CF92DF92EF92FF920F931F93CF9380
:10193000DF936C01E42EEB01FF241DC08C8588230E
:10194000C1F0CE0160E00E94C30ECE010E94AE0E37
:101950008C01CE010E94A70EE4E0000F111FEA9552
:10196000E1F70C0D1D1D080F191FF80180818A5029
:101970008083F3942D96FE1408F3DF91CF911F918D
:101980000F91FF90EF90DF90CF900895CF93DF936A
:10199000EC0164E070E080E090E00E94C31C8A816A
:1019A0008617B9F36A83DF91CF910895AF92BF9202
:1019B000CF92DF92EF92FF920F931F93CF93DF931B
:1019C0005C01EB01CE010E94A70EE82ECE010E9421
:1019D000AE0EF82E8A81882331F48E2D90E00F9779
:1019E00014F5E39425C0813051F48E2D90E00097DA
:1019F00011F4EE241DC04197B4F4EA9419C082306A
:101A000051F48F2D90E0009711F4FF2411C04597F9
:101A10006CF4FA940DC0833059F48F2D90E0439705
:101A20002CF4F39405C00FE0E02E02C013E1F12E78
:101A30000E2D10E0CF2CDD24F601B4E0EE0FFF1FD9
:101A4000BA95E1F7EA0DFB1DE00FF11F80818230AE
:101A500008F044C0CE010E94A70E0817190731F400
:101A6000CE010E94AE0EC816D906C1F1CE010E9469
:101A7000AE0E8C01CE010E94A70EA4E0000F111F34
:101A8000AA95E1F70A0D1B1D080F191FF8018081A7
:101A90008A508083CE016E2D4F2D0E949B0ECE0169
:101AA0000E94AE0E8C01CE010E94A70EF4E0000F42
:101AB000111FFA95E1F70A0D1B1D080F191FF801F8
:101AC0008081865F8083DF91CF911F910F91FF907E
:101AD000EF90DF90CF90BF90AF900895CE010E941D
:101AE000C60C70CFDF92EF92FF920F931F93CF93AC
:101AF000DF93D62E7A01EC0110E053C06FE070E066
:101B000080E090E00E94C31C062F6EE070E080E051
:101B100090E00E94C31C462F4A5FE42FF0E084E06F
:101B2000EE0FFF1F8A95E1F7EE0DFF1DE00FF11D8F
:101B30002081822F6AE00E94AB259923F9F6265F67
:101B40002083CE01602F0E949B0E64E070E080E055
:101B500090E00E94C31C6A83CE0161E00E94C30E24
:101B60000E9435156B837C838D839E8360ED77E0C7
:101B700080E090E028E833E140E050E00E94E51C7E
:101B80006F83788789879A8761E070E080E090E0D2
:101B900026E030E040E050E00E94E51C6B871F5FCC
:101BA0002D961D1508F4AACFDF91CF911F910F91AB
:101BB000FF90EF90DF900895FF920F931F93CF93C4
:101BC000DF93F62EEC0100E012C08C85882369F0CB
:101BD000CE010E94A70E182FCE010E94AE0E682FD4
:101BE000812F42E45CEC0E945E110F5F2D960F1571
:101BF00060F3DF91CF911F910F91FF9008952F9285
:101C00003F924F925F926F927F928F929F92AF928C
:101C1000BF92CF92DF92EF92FF920F931F93CF93D9
:101C2000DF934C01362E272EA42E862F972F9C0152
:101C3000E901BB2494EF492E91E0592E612C712CBF
:101C400057C0DC2ECD2E8C85882309F44FC0EF8041
:101C5000F88409851A858B819C81AD81BE81E80E4F
:101C6000F91E0A1F1B1F0E9435156E157F05800780
:101C70009107E0F10E9435156B837C838D839E83F1
:101C80008B8581508B87882329F04F8258866986FF
:101C90007A8619C060ED77E080E090E028E833E1D3
:101CA00040E050E00E94E51C6F83788789879A871F
:101CB00061E070E080E090E026E030E040E050E05D
:101CC0000E94E51C6B878D2D9C2D0E94A70E182F5E
:101CD0008D2D9C2D0E94AE0E482FC401612F0E94B5
:101CE0002012C4016D2D7C2D0E94D60CB3942D962C
:101CF000BA1408F4A6CF832D922D6A2D0E94DC0D14
:101D0000DF91CF911F910F91FF90EF90DF90CF90D7
:101D1000BF90AF909F908F907F906F905F904F900B
:101D20003F902F900895FC01128281E090E0918312
:101D3000808314860895FC0150E084E0440F551F11
:101D40008A95E1F7460F511D518340830895FC01A8
:101D5000208131812F703070C9010895FC012081EC
:101D6000318194E0359527959A95E1F7C901089559
:101D7000FC0184850190F081E02D882311F4E0506E
:101D8000F04FCF010895FC016487089540E00DC035
:101D9000FC01E20FF31F10822F5F3F4F203131050E
:101DA000B9F74F5F4096443119F020E030E0F0CFB2
:101DB0000895762FA62FAF5F08C0F901E50FF11D3A
:101DC00040835A0F5031C8F37A0F743158F4272FDB
:101DD00030E054E0220F331F5A95E1F7280F391FE6
:101DE000562FF0CF08952F923F924F925F926F92AD
:101DF0007F928F929F92AF92BF92CF92DF92EF929B
:101E0000FF920F931F93CF93DF93EC01D62E042FF5
:101E1000622E842F90E0AC01A4E0440F551FAA95D8
:101E2000E1F74C0F5D1F902E9A94A02EA394B62E2E
:101E3000BA94C62EC39411E0262F30E0FFE02F2E77
:101E4000312CE6E07E2E882483947C0173E1472EBA
:101E5000512CA4C0A12FB0E0FA01EA0FFB1FE20F42
:101E6000F31F80816AE00E94AB25933059F4C101D1
:101E70008A1B9B0B821793078CF0FA01EC0DF11D66
:101E800080820CC0953051F4C1018A1B9B0B8217D4
:101E9000930724F0FA01EC0DF11D7082F901EA1BA1
:101EA000FB0BE40FF51FE081E33039F4D11668F045
:101EB000FA01EB0DF11D808208C0E53031F4D11636
:101EC00020F0FA01EB0DF11D7082FD01EE0DFF1DFA
:101ED00064E0EE0FFF1F6A95E1F7EC0FFD1FE20FC4
:101EE000F31FE081E33099F4C2018A1B9B0B8E152E
:101EF0009F050CF1EA2DF0E094E0EE0FFF1F9A959C
:101F0000E1F7EC0FFD1FE20FF31F808214C0E530F4
:101F100091F4C2018A1B9B0B8E159F0564F0EA2D7C
:101F2000F0E084E0EE0FFF1F8A95E1F7EC0FFD1F54
:101F3000E20FF31F7082F701EA1BFB0BB4E0EE0F18
:101F4000FF1FBA95E1F7EC0FFD1FE20FF31FE081D1
:101F5000E33079F40117E8F0E92DF0E0A4E0EE0FAA
:101F6000FF1FAA95E1F7EC0FFD1FE20FF31F808220
:101F700010C0E53071F4011760F0E92DF0E074E075
:101F8000EE0FFF1F7A95E1F7EC0FFD1FE20FF31F35
:101F900070821F5F9A94A394BA94C394611608F058
:101FA00059CFDF91CF911F910F91FF90EF90DF906C
:101FB000CF90BF90AF909F908F907F906F905F90E9
:101FC0004F903F902F9008958F929F92AF92BF9223
:101FD000CF92DF92EF92FF920F931F93CF93DF93F5
:101FE000E62EFF2403E0EE0CFF1C0A95E1F7A42E79
:101FF000BB2413E0AA0CBB1C1A95E1F76C0100E0AE
:1020000010E02BC0F601EC0FFD1FE081E13031F450
:1020100089E898E06BE14DE72BEA07C0E23081F4F4
:1020200089E898E06DE14DE328E50E9465239C0175
:10203000BE016E0D7F1D89E898E0A4010E94F02189
:102040002196C830D105F1F60F5F1F4F88E090E070
:10205000C80ED91E0830110531F048018A0C9B1CAE
:10206000C0E0D0E0CFCFDF91CF911F910F91FF90D3
:10207000EF90DF90CF90BF90AF909F908F9008959A
:102080008F929F92AF92BF92CF92DF92EF92FF9288
:102090000F931F93CF93DF93A62EBB2453E0AA0C7C
:1020A000BB1C5A95E1F7E42EFF2443E0EE0CFF1C25
:1020B0004A95E1F76C0100E010E02BC0F601EC0F4F
:1020C000FD1FE081E13031F489E898E06BE34BE8F3
:1020D0002BE307C0E23081F489E898E067E449E344
:1020E0002FE10E9465239C01AE014E0D5F1D89E822
:1020F00098E0B4010E94F0212196C830D105F1F694
:102100000F5F1F4F88E090E0C80ED91E0830110500
:1021100031F048018A0C9B1CC0E0D0E0CFCFDF91AA
:10212000CF911F910F91FF90EF90DF90CF90BF90D4
:10213000AF909F908F9008958F929F92AF92BF9291
:10214000CF92DF92EF92FF920F931F93CF93DF9383
:10215000A62EBB2473E0AA0CBB1C7A95E1F7E42EF3
:10216000FF2463E0EE0CFF1C6A95E1F76C0100E0D0
:1021700010E02BC0F601EC0FFD1FE081E13031F4DF
:1021800089E898E06BE34BE82BE307C0E23081F489
:1021900089E898E069EB45EC2CE30E9465239C01FB
:1021A000AE014E0D5F1D89E898E0B4010E94F02158
:1021B0002196C830D105F1F60F5F1F4F88E090E0FF
:1021C000C80ED91E0830110531F048018A0C9B1C3D
:1021D000C0E0D0E0CFCFDF91CF911F910F91FF9062
:1021E000EF90DF90CF90BF90AF909F908F90089529
:1021F0008F929F92AF92BF92CF92DF92EF92FF9217
:102200000F931F93CF93DF93862E9924F3E0880CCE
:10221000991CFA95E1F7042F10E0E3E0000F111F7D
:10222000EA95E1F75C01EE24FF2435C0F501EC0FDF
:10223000FD1FE081E13031F489E898E06BE34BE881
:102240002BE30FC0E23031F489E898E067E041E326
:1022500020E207C0E33081F489E898E06BE142E1D5
:1022600021E00E9465239C01AE01400F511F89E8C7
:1022700098E0B6010E94F0212196C830D105B1F650
:102280000894E11CF11C88E090E0A80EB91E98E0CB
:10229000E916F10431F06701C80CD91CC0E0D0E0A8
:1022A000C5CFDF91CF911F910F91FF90EF90DF90FD
:1022B000CF90BF90AF909F908F9008950F931F93F2
:1022C000262F8A01682F70E0B3E0660F771FBA955A
:1022D000E1F76D5F7F4F30E0A3E0220F331FAA9537
:1022E000E1F72D5F3F4F89E898E0A90123E030E056
:1022F0000E94051E1F910F9108954F925F926F9259
:102300007F928F929F92AF92BF92CF92DF92EF9285
:10231000FF920F931F93C62EA42E882E9924BB24C0
:10232000DD24350114E0660C771C1A95E1F788E08E
:1023300090E0680E791EB9E84B2EB8E05B2EB40130
:102340006A197B09A3E0660F771FAA95E1F7A6013A
:10235000F3E0440F551FFA95E1F7C201930108E03D
:1023600010E0E0EAEE2EEBEFFE2E0E94ED2203E0FD
:10237000880C991C0A95E1F7CA18DB0813E0CC0C0D
:10238000DD1C1A95E1F7C201B401A60128E030E096
:1023900083010E94ED221F910F91FF90EF90DF903B
:1023A000CF90BF90AF909F908F907F906F905F90F5
:1023B0004F900895EF92FF920F931F93462F682F2F
:1023C00070E083E0660F771F8A95E1F76F5F7F4FBC
:1023D00050E003E0440F551F0A95E1F74F5F5F4F50
:1023E00089E898E026E030E006E010E0EE24FF24E3
:1023F0000E94ED221F910F91FF90EF900895EF92B0
:10240000FF920F931F93262F7A01682F70E033E01D
:10241000660F771F3A95E1F730E093E0220F331F04
:102420009A95E1F789E898E0A90128E030E008E012
:1024300010E00E94ED221F910F91FF90EF90089500
:10244000262FE42FF0E054E0EE0FFF1F5A95E1F73E
:10245000E80FF91FE60FF11D80816AE00E94AB25AD
:10246000992331F481E595E0622F0E949C10089534
:10247000913031F481E995E0622F0E944010089577
:10248000923031F481ED95E0622F0E94E40F0895BF
:10249000933011F0953031F481E195E0622F0E9484
:1024A000F8100895943039F4822F642F42EB54E9E8
:1024B0000E94FF110895963031F4822F642F4FEF60
:1024C0005FEF0E94FF1108950F931F93CF93DF9347
:1024D000EC0100E00BC0CE01612F402F0E942012C2
:1024E0001F5F1031C1F70F5F043111F010E0F3CF1F
:1024F000DF91CF911F910F9108950F931F9309E8DA
:1025000018E0C80160E070E040E550E00E9408215A
:10251000C80161E00E940E21C8016FEF7FEF40E02B
:1025200050E00E941421C80167EA73E00E94AD1CCC
:10253000C80160E070E040E650E00E940821C80158
:1025400066EB73E00E94AD1C1F910F9108958823E4
:1025500069F489E898E06DE170E040E550E00E94A0
:10256000082189E898E06CED73E00EC0813079F4C1
:1025700089E898E068E170E048E550E00E940821B1
:1025800089E898E067EE73E00E94AD1C089589E841
:1025900098E062E00E940E2189E898E068E070E02F
:1025A00048E050E00E94082189E898E064EF73E079
:1025B0000E94AD1C89E898E061E00E940E21089518
:1025C000CF92DF92EF92FF920F931F936B017C01EA
:1025D00009E818E0C80160E070E040E550E00E94C2
:1025E0000821C80161E00E940E21C8016FEF7FEF52
:1025F00040E050E00E941421C80162E00E940E21D8
:10260000C8016FEF73E00E94AD1CC80160E070E08C
:1026100040E650E00E940821C80161E00E940E21BE
:10262000C80168E074E00E94AD1CC80168E470E075
:1026300040E650E00E940821C801B701A6012AE047
:1026400030E00E94FC1BC80160E070E040E950E00F
:102650000E940821C80166E174E00E94AD1C1F9130
:102660000F91FF90EF90DF90CF9008950F931F93FD
:1026700009E818E0C80160E070E00E94D222C801B9
:102680006FEF7FEF40E050E00E941421C8016DE140
:1026900070E048E050E00E940821C80166E374E061
:1026A0000E94AD1CC80160E070E048E150E00E946B
:1026B0000821C80163E474E00E94AD1CC80160E019
:1026C00070E048E250E00E940821C8016DE574E026
:1026D0000E94AD1CC80160E070E048E350E00E9439
:1026E0000821C8016FE774E00E94AD1CC80160E0DA
:1026F00070E048E450E00E940821C80164EA74E0F8
:102700000E94AD1CC80160E070E048E550E00E9406
:102710000821C80165EC74E00E94AD1CC80160E0AE
:1027200070E048E850E00E940821C80165EE74E0BE
:102730000E94AD1C1F910F910895EF92FF920F938D
:102740001F93CF93DF93082F10E0C0E0D0E061E04B
:10275000E62EF12C8DE00E94B91480FF08C0C7015D
:102760000C2E02C0880F991F0A94E2F7180F60E53B
:1027700070E080E090E00E9443152196C630D105BC
:1027800049F78CE998E1602F70E00E94CB2584E640
:10279000189FC001112470E00E94CB25061708F491
:1027A000602F862FDF91CF911F910F91FF90EF90B7
:1027B00008956F927F928F929F92AF92BF92CF9225
:1027C000DF92EF92FF920F931F93CF93DF934C0111
:1027D0005B0187E20E949D13C82EE401DD24A3E083
:1027E0006A2EF5E07F2EDC14B1F47401ED0CF11CBF
:1027F000C7010E94AD148C01C7010E94A614E4E039
:10280000000F111FEA95E1F70A0D1B1D080F191F94
:10281000F801708212C0CE010E94AD148C01CE016D
:102820000E94A61474E0000F111F7A95E1F70A0DBB
:102830001B1D080F191FF8016082D3942196F8E23E
:10284000DF1689F6DF91CF911F910F91FF90EF90E6
:10285000DF90CF90BF90AF909F908F907F906F90C0
:1028600008959F92AF92BF92CF92DF92EF92FF9224
:102870000F931F93CF93DF93182F092F6B0187E2DC
:102880000E949D13B82E212F302FC9017C0100E03A
:1028900083E0982E15E0A12E6FE070E080E090E0DC
:1028A0000E94C31C162F60E170E080E090E00E945F
:1028B000C31C462F4C5FC42FD0E0B4E0CC0FDD1F0B
:1028C000BA95E1F7CC0DDD1D612F70E0C60FD71F63
:1028D0008881833009F38530F9F2C70150E00E9406
:1028E0009B140B1511F4A88201C098820F5F089405
:1028F000E11CF11C083281F6DF91CF911F910F91FD
:10290000FF90EF90DF90CF90BF90AF909F90089591
:102910000F931F9309E818E0C80162E00E94912418
:10292000C80160E070E00E94D2221F910F910895CB
:10293000FC0110820895FC014450504084E0440F93
:10294000551F8A95E1F7640F60830895FC0120818B
:1029500030E02F703070C9010895FC01208130E013
:1029600094E0359527959A95E1F72C5F3F4FC90183
:102970000895382F863308F0365320917B00832F3B
:1029800086958695869590E08170907043E0880FDB
:10299000991F4A95E1F7277F282B20937B003770FA
:1029A000809111068295880F880F807C832B8093FD
:1029B0007C0080917A00806480937A0080917A0014
:1029C00086FDFCCF2091780040917900942F80E023
:1029D00030E0282B392BC90108951F920F920FB6B2
:1029E0000F9211242F933F938F939F93AF93BF9395
:1029F0008091FE089091FF08A0910009B091010913
:102A0000309102090196A11DB11D232F2D5F2D3795
:102A100020F02D570196A11DB11D2093020980932E
:102A2000FE089093FF08A0930009B09301098091DC
:102A3000FA089091FB08A091FC08B091FD0801965E
:102A4000A11DB11D8093FA089093FB08A093FC0888
:102A5000B093FD08BF91AF919F918F913F912F91BE
:102A60000F900FBE0F901F9018958FB7F89420917C
:102A7000FE083091FF0840910009509101098FBF75
:102A8000B901CA0108959B01AC017FB7F894809108
:102A9000FA089091FB08A091FC08B091FD0866B57A
:102AA000A89B05C06F3F19F00196A11DB11D7FBF06
:102AB000BA2FA92F982F8827860F911DA11DB11D10
:102AC00062E0880F991FAA1FBB1F6A95D1F7BC014E
:102AD0002DC0FFB7F8948091FA089091FB08A0915F
:102AE000FC08B091FD08E6B5A89B05C0EF3F19F0C2
:102AF0000196A11DB11DFFBFBA2FA92F982F8827BE
:102B00008E0F911DA11DB11DE2E0880F991FAA1F14
:102B1000BB1FEA95D1F7861B970B885E9340C8F2DE
:102B2000215030404040504068517C4F21153105C4
:102B30004105510571F60895789484B5826084BD8D
:102B400084B5816084BD85B5826085BD85B58160B1
:102B500085BDEEE6F0E0808181608083E1E8F0E011
:102B60001082808182608083808181608083E0E840
:102B7000F0E0808181608083E1EBF0E0808184601F
:102B80008083E0EBF0E0808181608083E1E9F0E028
:102B9000808182608083808181608083E0E9F0E0D1
:102BA000808181608083E1EAF0E0808182608083BF
:102BB000808181608083E0EAF0E0808181608083B1
:102BC000E1E2F1E0808182608083808181608083A6
:102BD000E0E2F1E0808181608083EAE7F0E08081DB
:102BE0008460808380818260808380818160808333
:102BF0008081806880831092C1000895CF93DF9315
:102C0000482F50E0CA0188589E4FFC0134914E5C19
:102C10005E4FFA018491882369F190E0880F991F33
:102C2000FC01EC51FF4FA591B491FC01E250FF4F24
:102C3000C591D491662351F42FB7F8948C91932FBA
:102C4000909589238C93888189230BC0623061F42D
:102C50002FB7F8948C91932F909589238C9388812A
:102C6000832B88832FBF06C09FB7F8948C91832B4A
:102C70008C939FBFDF91CF910895893009F449C0AB
:102C80008A30A0F4843051F1853040F4823079F1FB
:102C9000833000F5813009F063C026C0873079F1B8
:102CA000883098F5863009F05BC025C08D3009F476
:102CB00042C08E3028F48B30B1F18C30C0F52DC07D
:102CC000803109F442C0813109F445C08F3009F0E8
:102CD00047C037C0809180008F7703C0809180000B
:102CE0008F7D80938000089584B58F7702C084B56E
:102CF0008F7D84BD08958091B0008F7703C080914F
:102D0000B0008F7D8093B0000895809190008F7700
:102D100007C0809190008F7D03C080919000877FD5
:102D20008093900008958091A0008F7707C08091D4
:102D3000A0008F7D03C08091A000877F8093A000BA
:102D40000895809120018F7703C0809120018F7DAD
:102D500080932001089580912001877F8093200136
:102D60000895FF920F931F93F62E482F50E0CA014B
:102D700082549E4FFC012491CA0188589E4FFC0149
:102D800014914E5C5E4FFA0104910023C9F0222396
:102D900019F0822F0E943D16E02FF0E0EE0FFF1F8A
:102DA000E250FF4FA591B4919FB7F894FF2021F412
:102DB0008C911095812302C08C91812B8C939FBFA5
:102DC0001F910F91FF9008950F931F93482F50E08C
:102DD000CA0182549E4FFC012491CA0188589E4F1B
:102DE000FC0104914E5C5E4FFA011491112319F419
:102DF00020E030E015C0222319F0822F0E943D16FA
:102E0000812F90E0880F991F885E9E4FFC01A5914D
:102E1000B4918C9120E030E0802311F021E030E08B
:102E2000C9011F910F9108951F920F920FB60F9233
:102E30000BB60F9211242F933F934F938F939F9331
:102E4000EF93FF934091C6002091430930914409CC
:102E50002F5F3F4F2F733070809145099091460945
:102E60002817390759F0E0914309F0914409ED5FC3
:102E7000F64F40833093440920934309FF91EF912B
:102E80009F918F914F913F912F910F900BBE0F907B
:102E90000FBE0F901F9018951F920F920FB60F92B2
:102EA0000BB60F9211242F933F934F938F939F93C1
:102EB000EF93FF934091CE002091CB093091CC0944
:102EC0002F5F3F4F2F7330708091CD099091CE09C5
:102ED0002817390759F0E091CB09F091CC09E55753
:102EE000F64F40833093CC092093CB09FF91EF91AB
:102EF0009F918F914F913F912F910F900BBE0F900B
:102F00000FBE0F901F9018951F920F920FB60F9241
:102F10000BB60F9211242F933F934F938F939F9350
:102F2000EF93FF934091D6002091530A3091540AB9
:102F30002F5F3F4F2F7330708091550A9091560A42
:102F40002817390759F0E091530AF091540AED5EC1
:102F5000F54F40833093540A2093530AFF91EF9129
:102F60009F918F914F913F912F910F900BBE0F909A
:102F70000FBE0F901F9018951F920F920FB60F92D1
:102F80000BB60F9211242F933F934F938F939F93E0
:102F9000EF93FF93409136012091DB0A3091DC0AD8
:102FA0002F5F3F4F2F7330708091DD0A9091DE0AC2
:102FB0002817390759F0E091DB0AF091DC0AE55651
:102FC000F54F40833093DC0A2093DB0AFF91EF91A9
:102FD0009F918F914F913F912F910F900BBE0F902A
:102FE0000FBE0F901F9018951F920F920FB60F9261
:102FF0000BB60F9211242F933F938F939F93EF93D0
:10300000FF932091870930918809809189099091D7
:103010008A092817390731F48091C1008F7D809388
:10302000C10014C0E0918909F0918A09E95BF64F6B
:1030300020818091890990918A0901968F739070FF
:1030400090938A09809389092093C600FF91EF919C
:103050009F918F913F912F910F900BBE0F900FBEBC
:103060000F901F9018951F920F920FB60F920BB6EC
:103070000F9211242F933F938F939F93EF93FF937E
:1030800020910F0A3091100A8091110A9091120A32
:103090002817390731F48091C9008F7D8093C900CA
:1030A00014C0E091110AF091120AE153F64F208109
:1030B0008091110A9091120A01968F7390709093EB
:1030C000120A8093110A2093CE00FF91EF919F91F5
:1030D0008F913F912F910F900BBE0F900FBE0F90CD
:1030E0001F9018951F920F920FB60F920BB60F926A
:1030F00011242F933F938F939F93EF93FF932091EE
:10310000970A3091980A8091990A90919A0A281703
:10311000390731F48091D1008F7D8093D10014C0A4
:10312000E091990AF0919A0AE95AF54F208180912D
:10313000990A90919A0A01968F73907090939A0AC7
:103140008093990A2093D600FF91EF919F918F91E0
:103150003F912F910F900BBE0F900FBE0F901F90BD
:1031600018951F920F920FB60F920BB60F92112463
:103170002F933F938F939F93EF93FF9320911F0B78
:103180003091200B8091210B9091220B2817390749
:1031900031F4809131018F7D8093310114C0E09131
:1031A000210BF091220BE152F54F20818091210BF0
:1031B0009091220B01968F7390709093220B8093C5
:1031C000210B20933601FF91EF919F918F913F91B9
:1031D0002F910F900BBE0F900FBE0F901F90189560
:1031E000AF92BF92DF92EF92FF920F931F93CF9314
:1031F000DF93EC017A018B01DD24403081EE58072A
:1032000080E0680780E0780711F0DD24D39491E036
:10321000A92EB12CEC89FD89DD2069F0C5010E8C49
:1032200002C0880F991F0A94E2F7808360E079E07A
:103230008DE390E005C0108260E874E88EE190E0D4
:10324000A80197010E94DE252150304040405040A7
:10325000569547953795279580E12030380720F01F
:10326000DD2011F0DD24D6CFE889F9893083EA89A1
:10327000FB892083EE89FF89408121E030E0C9018C
:103280000A8C02C0880F991F0A94E2F7482B4083EA
:10329000EE89FF894081C9010B8C02C0880F991FFC
:1032A0000A94E2F7482B4083EE89FF894081C901E7
:1032B0000C8C02C0880F991F0A94E2F7482B4083B8
:1032C000EE89FF8980810D8C02C0220F331F0A9482
:1032D000E2F7209528232083DF91CF911F910F9152
:1032E000FF90EF90DF90BF90AF900895DC011C96A7
:1032F000ED91FC911D97E05CFF4F21913191808110
:103300009181281B390B2F733070C9010895DC019E
:103310001C96ED91FC911D97E05CFF4F208131815F
:10332000E054F040DF01AE5BBF4F8D919C9111974F
:103330002817390719F42FEF3FEF07C08D919C91A3
:10334000E80FF91F8081282F30E0C9010895DC01C2
:103350001C96ED91FC911D97E05CFF4F208131811F
:10336000E054F040DF01AE5BBF4F8D919C9111970F
:103370002817390719F42FEF3FEF10C08D919C915A
:103380001197E80FF91F20818D919C91119701965B
:103390008F73907011969C938E9330E0C9010895BD
:1033A000FC0186859785DC01A05CBF4FFC01EE5BCC
:1033B000FF4F2D913C9111978081918128173907FA
:1033C000C1F70895CF93DF93EC01EE85FF85E05CB4
:1033D000FF4F20813181E054F0402F5F3F4F2F732A
:1033E0003070DF01AE5BBF4F8D919C911197281714
:1033F0003907D1F3E05CFF4F80819181E054F040C8
:10340000E80FF91F6083EE85FF85E05CFF4F318395
:103410002083EE89FF89208181E090E00D8C02C03D
:10342000880F991F0A94E2F7282B208381E090E00F
:10343000DF91CF9108951F931092260B1092250BC8
:1034400028EE33E040E050E02093270B3093280B28
:103450004093290B50932A0B66E176E07093240B7E
:103460006093230B83E099E09093300B80932F0BB4
:1034700087E499E09093320B8093310B85EC90E0D8
:103480009093340B8093330B84EC90E09093360B45
:103490008093350B80EC90E09093380B8093370B42
:1034A00081EC90E090933A0B8093390B86EC90E09E
:1034B00090933C0B80933B0B14E010933D0BB3E0D7
:1034C000B0933E0BA7E0A0933F0BF5E0F093400BC9
:1034D000E1E0E093410B1092450B1092440B2093D6
:1034E000460B3093470B4093480B5093490B709316
:1034F000430B6093420B8BE899E090934F0B8093C2
:103500004E0B8FEC99E09093510B8093500B8DEC08
:1035100090E09093530B8093520B8CEC90E090933F
:10352000550B8093540B88EC90E09093570B80934D
:10353000560B89EC90E09093590B8093580B8EECCE
:1035400090E090935B0B80935A0B10935C0BB093BD
:103550005D0BA0935E0BF0935F0BE093600B1092FA
:10356000640B1092630B2093650B3093660B4093B2
:10357000670B5093680B7093620B6093610B83E150
:103580009AE090936E0B80936D0B87E59AE0909391
:10359000700B80936F0B85ED90E09093720B80938E
:1035A000710B84ED90E09093740B8093730B80ED1E
:1035B00090E09093760B8093750B81ED90E0909363
:1035C000780B8093770B86ED90E090937A0B809345
:1035D000790B10937B0BB0937C0BA0937D0BF09336
:1035E0007E0BE0937F0B1092830B1092820B209343
:1035F000840B3093850B4093860B5093870B70930D
:10360000810B6093800B8BE99AE090938D0B8093F4
:103610008C0B8FED9AE090938F0B80938E0B85E34C
:1036200091E09093910B8093900B84E391E09093C1
:10363000930B8093920B80E391E09093950B809392
:10364000940B81E391E09093970B8093960B86E324
:1036500091E09093990B8093980B10939A0BB093F1
:103660009B0BA0939C0BF0939D0BE0939E0B1F91E3
:1036700008950895CF92DF92EF92FF920F931F93D8
:10368000CF93DF937C016B018A01C0E0D0E00FC0D3
:10369000D6016D916D01D701ED91FC910190F08102
:1036A000E02DC7011995C80FD91F01501040011511
:1036B000110571F7CE01DF91CF911F910F91FF900E
:1036C000EF90DF90CF900895EF92FF920F931F93AA
:1036D0008C01DC01ED91FC910190F081E02D6DE019
:1036E00019957C01D801ED91FC910190F081E02DBC
:1036F000C8016AE019959C012E0D3F1DC9011F915B
:103700000F91FF90EF900895CF93DF93DB010D9021
:103710000020E9F71197A61BB70BEC01E881F981AE
:103720000280F381E02DAD011995DF91CF910895CD
:103730004F925F927F928F929F92AF92BF92CF9261
:10374000DF92EF92FF920F931F93DF93CF93CDB74A
:10375000DEB7A1970FB6F894DEBF0FBECDBF2C0128
:10376000742ECB01223008F42AE019A231E2C32ED4
:10377000D12CCC0EDD1E822E9924AA24BB24672DC9
:10378000752FA50194010E94DE2579018A01C801E7
:10379000B701A50194010E948C25472D461B089472
:1037A000C108D1084A3014F4405D01C0495CF601FB
:1037B0004083E114F1040105110521F07E2C5F2DF9
:1037C000C801DDCFC201B6010E94841BA1960FB6CD
:1037D000F894DEBF0FBECDBFCF91DF911F910F9147
:1037E000FF90EF90DF90CF90BF90AF909F908F9021
:1037F0007F905F904F900895DC012115310541F4D1
:10380000ED91FC910190F081E02D642F19950895C0
:103810000E94981B0895EF92FF920F931F937C01D3
:103820000E94FC1B8C01C7010E94641B9C01200F9D
:10383000311FC9011F910F91FF90EF900895CF9212
:10384000DF92EF92FF920F931F936C017B019A011D
:1038500000E010E0B801A7010E94FC1B8C01C6012A
:103860000E94641B080F191FC8011F910F91FF9040
:10387000EF90DF90CF900895CF92DF92EF92FF927A
:103880000F931F936C01E62E9A01FF2400E010E0D5
:10389000B801A7010E94FC1B8C01C6010E94641B99
:1038A000080F191FC8011F910F91FF90EF90DF9033
:1038B000CF900895CF92DF92EF92FF920F931F93D4
:1038C000CF93DF93EC016A017B012115310541F4AF
:1038D000E881F9810190F081E02D642F19951FC0D6
:1038E0002A303105D1F477FF17C0E881F9810190C2
:1038F000F081E02D6DE219958C0144275527BA011E
:103900004C195D096E097F09CE012AE00E94981BBF
:103910009801280F391F04C02AE00E94981B9C01BF
:10392000C901DF91CF911F910F91FF90EF90DF9030
:10393000CF900895EF92FF920F931F937B019A010E
:103940000027F7FC0095102FB801A7010E945A1C10
:103950001F910F91FF90EF9008950E94841B08958E
:10396000EF92FF920F931F937C010E94841B8C01A6
:10397000C7010E94641B080F191FC8011F910F91F6
:10398000FF90EF900895EF92FF920F931F937B01AA
:103990008C01611571058105910529F420E030E065
:1039A00040E050E00BC00E947B25A80197010E94D7
:1039B0000026AC01CB01DA019C01AD01B901CA01BD
:1039C0001F910F91FF90EF900895EF92FF920F9348
:1039D0001F937B018C01621773078407950764F4BA
:1039E000261B370B480B590BCA01B9010E94C31C97
:1039F000E60EF71E081F191FB701C8011F910F918E
:103A0000FF90EF900895FC011382128286E296E007
:103A1000918380837583648357834683718760872E
:103A200053874287158A158614861786168621E0E5
:103A3000248B8FEF9FEF938B828B918B808B268BC8
:103A400008952F923F924F925F926F927F928F9242
:103A50009F92AF92BF92CF92DF92EF92FF920F931D
:103A60001F93DF93CF93CDB7DEB72E970FB6F894A1
:103A7000DEBF0FBECDBF9E878D871B015E834D834A
:103A8000A701260171E0C72ED12CC21AD30AC901A1
:103A9000880F991F66277727681B790B7A836983BC
:103AA0006D807E8008946108710883E0882E912CD7
:103AB0008E0C9F1C790181E090E09C838B83AA246B
:103AC000BB2410E0D801A170B070B887AF83FA01B1
:103AD0003196FA87E987B801627070707C876B87CE
:103AE00077C0D7FC0AC00894E108F10889819A815F
:103AF00002969A838983C80ED91E0894A11CB11C12
:103B0000AB81BC811296BC83AB83EF81F885EF2B30
:103B100041F1AD85BE85ED91FC911197B501620D26
:103B2000731D4D815E814E195F099701220F331F6E
:103B300089859A85280F391F0084F185E02DCD01F4
:103B400082011995AD85BE85ED91FC911197B70164
:103B5000620D731D0084F185E02DCD01A301940158
:103B60001995EB85FC85EF2B41F1AD85BE85ED9177
:103B7000FC911197B1016A197B094D815E814E1943
:103B80005F099701220F331F89859A85280F391FF6
:103B90000084F185E02DCD0182011995AD85BE85AA
:103BA000ED91FC911197B1016E197F090084F185A7
:103BB000E02DCD01A30194011995EB81FC81CE0E7E
:103BC000DF1E08946108710862E070E0860E971E9F
:103BD000AE14BF040CF485CF2E960FB6F894DEBF5A
:103BE0000FBECDBFCF91DF911F910F91FF90EF904E
:103BF000DF90CF90BF90AF909F908F907F906F900D
:103C00005F904F903F902F9008956F927F928F9288
:103C10009F92AF92BF92CF92DF92EF92FF920F935B
:103C20001F937C014B013A0159016801DC01ED91C0
:103C3000FC91421B530B220F331F2F5F3F4F008419
:103C4000F185E02D1995C701B401A301950103E0A9
:103C5000EE24FF240E94211D1F910F91FF90EF90F1
:103C6000DF90CF90BF90AF909F908F907F906F909C
:103C700008952F923F924F925F926F927F928F9210
:103C80009F92AF92BF92CF92DF92EF92FF920F93EB
:103C90001F93DF93CF9300D00F92CDB7DEB73C01D7
:103CA0007C836B836A015901FA82E98222243324DE
:103CB0009801241B350B37FF03C0309521953F4FEA
:103CC000C5014B815C81841B950B97FF03C09095C8
:103CD00081959F4F821793075CF481E0282E312C49
:103CE000C601CB80DC809C838B83C80185015C018D
:103CF0008B819C81A816B90644F4C501AB80BC80B9
:103D00009C838B83C80186016C012501AB81BC813A
:103D10004A1A5B0A7801EC18FD08F7FE04C0F0941B
:103D2000E194F108F394C016D10624F088248A9413
:103D3000982C03C0B1E08B2E912CC20162E070E0A0
:103D40000E94CB258B0125C0D301ED91FC9121145C
:103D5000310441F00480F581E02DC301B6014B81AF
:103D60005C8107C00480F581E02DC3016B817C81FB
:103D7000A60129813A8119950E191F0917FF04C060
:103D8000C80CD91C040D151DEB81FC813196FC83F8
:103D9000EB834B815C81A416B506B4F60F900F90AF
:103DA0000F900F90CF91DF911F910F91FF90EF90A7
:103DB000DF90CF90BF90AF909F908F907F906F904B
:103DC0005F904F903F902F9008954F925F926F9227
:103DD0007F928F929F92AF92BF92CF92DF92EF929B
:103DE000FF920F931F936C015B014A013901280177
:103DF000DC01ED91FC910284F385E02D870119959A
:103E0000D601ED91FC91A40141505040440D551D47
:103E10000284F385E02DC601B50193011995D60101
:103E2000ED91FC910084F185E02DC601B501A4015E
:103E300092011995D601ED91FC910894A108B10861
:103E4000A60CB71C0084F185E02DC601B501A401C4
:103E5000920119951F910F91FF90EF90DF90CF90F5
:103E6000BF90AF909F908F907F906F905F904F909A
:103E70000895CF92DF92EF92FF920F931F93DC0190
:103E80006B017801ED91FC918A0101501040020F05
:103E9000131F0680F781E02D960119951F910F9150
:103EA000FF90EF90DF90CF900895CF92DF92EF9246
:103EB000FF920F931F93DC016A01C9017801ED9114
:103EC000FC9111979B0121503040280F391F06802B
:103ED000F781E02DCD01860119951F910F91FF907B
:103EE000EF90DF90CF9008956F927F928F929F9284
:103EF000AF92BF92CF92DF92EF92FF920F931F93F8
:103F0000CF93DF935C013A0169014801EB01C60ED2
:103F1000D71E0DC0D501ED91FC910084F185E02DF7
:103F2000C501BE01A3019401870119952196CC1505
:103F3000DD0584F3DF91CF911F910F91FF90EF90FA
:103F4000DF90CF90BF90AF909F908F907F906F90B9
:103F50000895EF92FF920F931F93FC017B01A081C4
:103F6000B18120853185028513851E960D90BC9107
:103F7000A02D60E070E040E050E0FD0119951F9138
:103F80000F91FF90EF9008952F923F924F925F9282
:103F90006F927F928F929F92AF92BF92CF92DF9259
:103FA000EF92FF920F931F93DF93CF93CDB7DEB7BE
:103FB0002F970FB6F894DEBF0FBECDBF5C015E83B6
:103FC0004D8318870F83FA86E986CB86DC01189625
:103FD0008D919C911997681779070CF0A4C01A96D7
:103FE0008D919C911B97481759070CF09CC0EC2DA4
:103FF000F0E0FF87EE87CF01880F991F8E0F9F1F7C
:10400000880F991F860F971F181619060CF08BC082
:10401000CF01F3E0880F991FFA95E1F7840F951F00
:10402000181619060CF07FC085E0289FA001112406
:104030005A8349832B011B011C825C81553011F48A
:1040400080E005C0E981FA81EC5FFD4F84912C8608
:104050003D866D807E8043011B82C82EDD2480FF5B
:104060001CC0D501ED91FC91BB85B13049F40480B1
:10407000F581E02DC501B201A3012F81388522C051
:104080000684F785E02DC5016C857D85A4012E850C
:104090003F858901EF80F88423C0E985FA852F8167
:1040A0003885E217F307E9F0D501ED91FC91BB8566
:1040B000B13051F40480F581E02DC501B201A301B6
:1040C00029853A8519950DC00684F785E02DC5012F
:1040D0006C857D85A4012E853F858901E984FA845C
:1040E0001995EB81EF5FEB832E853F85820E931E42
:1040F0000894611C711CE83021F0D594C7948C2D74
:10410000ACCF3C813F5F3C834E855F85240E351EDE
:104110000894411C511C89819A8101969A83898354
:10412000363009F08ACF2F960FB6F894DEBF0FBE57
:10413000CDBFCF91DF911F910F91FF90EF90DF9056
:10414000CF90BF90AF909F908F907F906F905F9037
:104150004F903F902F900895CF92EF92FF920F9340
:104160001F93CF93DF93EC01262F6A3061F42C89E3
:1041700030E003E0220F331F0A95E1F78E859F851B
:10418000820F931F37C06D30C9F16C857D854E85D8
:104190005F8508891989EA88FB88CC880E94C41F3A
:1041A0002C8986E0289FB00111248C859D85680F9D
:1041B000791F7D876C878E89882301F1422F50E01B
:1041C0008AEF9FEF9C01429FC001439F900D529F39
:1041D000900D112428853985820F931F8617970724
:1041E0006CF413E0440F551F1A95E1F78E859F85F7
:1041F000840F951F9F878E871D861C8681E090E027
:10420000DF91CF911F910F91FF90EF90CF90089584
:10421000FC0175876487578746870895FC016623EC
:1042200009F461E0648B0895FC01718B608B538B02
:10423000428B08950895DC0158968C9158978823F5
:1042400029F06EBD0DB407FEFDCF089530E840E0C3
:1042500050E070E0832F90E0862397235996ED91EC
:10426000FC915A9796962C919697892B21F08081F4
:10427000822B808304C080812095282320835B9635
:10428000ED91FC915C97808197969C919797892BF3
:1042900080835B96ED91FC915C97908197968C91D1
:1042A000979780958923808336954F5F5F4F48307D
:1042B000510581F608950F931F938C01DC015F96E1
:1042C000ED91FC919097908199968C91999780951A
:1042D000892380835D96ED91FC915E9790819896FD
:1042E0008C91809589238083C8010E941B21D8016D
:1042F0005D96ED91FC915E97808198969C91892BBB
:1043000080831F910F9108950F931F938C01DC01FF
:104310005F96ED91FC919097808199969C919997E9
:10432000892B80835D96ED91FC915E9790819896A4
:104330008C91809589238083C8010E941B21D8011C
:104340005D96ED91FC915E97808198969C91892B6A
:1043500080831F910F910895CF92DF92EF92FF9289
:104360000F931F937C01162FC42ED22E6AE20E9457
:104370005B21C70160E00E948421F70162A5610F03
:10438000C7010E948421C70160E00E948421F701D7
:1043900062A56D0DC7010E948421C7016BE20E94D6
:1043A0005B21C70160E00E948421F70163A56C0DC9
:1043B000C7010E948421C70160E00E948421F701A7
:1043C00063A5600FC7010E948421C7016CE20E94AF
:1043D0005B211F910F91FF90EF90DF90CF90089598
:1043E000FF920F931F93CF93DF93EC01F22E132FC5
:1043F00077FD2EC088859985681779074CF557FD9C
:1044000027C08A859B854817590714F5262F2F5FEB
:10441000042F0F5FCE010E94AC21EF8DF8A18081A7
:1044200099A5892B8083ED8DFE8D908188A580953F
:1044300089238083CE01612F0E941B21CE016F2D25
:104440000E941B21ED8DFE8D808198A5892B808394
:10445000DF91CF911F910F91FF900895DF92EF921E
:10446000FF920F931F93CF93DF93EC01FB01790130
:10447000D02E8885998568177907D4F52A853B85DC
:1044800042175307ACF5C701840F951F281739074A
:104490001CF47901E41AF50A042F01500E0DCE0127
:1044A0006E2F2E2F0E94AC21EF8DF8A1808199A54F
:1044B000892B8083ED8DFE8D908188A58095892341
:1044C000808308C0CE01612F0E941B21CE016D2D7B
:1044D0000E941B210894E108F1088FEFE8168FEF86
:1044E000F80681F7ED8DFE8D808198A5892B80835C
:1044F000DF91CF911F910F91FF90EF90DF90089582
:10450000DF92EF92FF920F931F93CF93DF93EC0113
:10451000FA017901D02E2885398562177307D4F501
:104520008A859B8548175907ACF5C701860F971FE9
:10453000281739071CF47901E61AF70A262F2150AB
:104540002E0DCE014E2F0E2F0E94AC21EF8DF8A123
:10455000808199A5892B8083ED8DFE8D908188A522
:1045600080958923808308C0CE01612F0E941B2182
:10457000CE016D2D0E941B210894E108F1088FEFF8
:10458000E8168FEFF80681F7ED8DFE8D808198A5F6
:10459000892B8083DF91CF911F910F91FF90EF9036
:1045A000DF900895EF92FF920F931F93FC017B0120
:1045B000A081B18120853185028513851E960D90DD
:1045C000BC91A02D60E070E040E050E0FD01199545
:1045D0001F910F91FF90EF900895AF92BF92CF92ED
:1045E000DF92EF92FF920F931F93CF93DF936C01B3
:1045F0005901E801DC0118962D913C911997621739
:1046000073070CF057C01A96ED91FC911B974E174B
:104610005F070CF04FC0C501860F971F2817390799
:104620001CF45901A61AB70ACE01840F951FE8178A
:10463000F9071CF4EF01C41BD50B262F21502A0DBE
:10464000042F01500C0FC6010E94AC21D6015F96C9
:10465000ED91FC919097808199969C919997892BE7
:1046600080835D96ED91FC915E97908198968C91F8
:104670008095892380838E010EC0C6016F2D0E9414
:104680001B21C6016E2D0E941B2121971C161D06A1
:10469000A4F3015010401016110614F4E501F6CFF2
:1046A000D6015D96ED91FC915E97808198969C91E4
:1046B000892B8083DF91CF911F910F91FF90EF9015
:1046C000DF90CF90BF90AF90089550E04C7F507036
:1046D00033E0440F551F3A95E1F730E093E035950C
:1046E00027959A95E1F7422B532B70E0687F707005
:1046F000762F6627462B572BCA010895662311F49F
:1047000060E201C061E20E945B210895AF92BF9216
:10471000CF92DF92EF92FF920F931F93CF93DF938D
:104720005C01FB01EB012196D49031C08E010F5F3B
:104730001F4FFE016491C5010E945B21780108941E
:10474000E11CF11CF801C4900C2D0F77E701102F2C
:1047500008C0FE012196E491C5016E2F0E948421BC
:1047600011501123B1F7E701C00FD11DC7FE0EC0D4
:10477000FE018491682F70E06F3F710511F464EFC2
:1047800071E0219680E090E00E944315DA94DD20EC
:1047900069F6DF91CF911F910F91FF90EF90DF901D
:1047A000CF90BF90AF9008950F931F93CF93DF9357
:1047B000EC018B011BA61AA68AA161E00E94FE15DE
:1047C00089A161E00E94FE15E9A14E2F50E0FA0197
:1047D000EE5CFE4FE491F0E0EE0FFF1FE250FF4F62
:1047E000859194919E8F8D8FEAA12E2F30E0F90153
:1047F000EE5CFE4FE491F0E0EE0FFF1FE250FF4F42
:104800008591949198A38F8F48585E4FFA018491B7
:1048100088A728583E4FF901849189A7888D88235D
:1048200061F00E94FF2480E00E94EE2481E00E945B
:10483000E02480E00E94E9243DC08DA161E00E9457
:10484000FE158CA161E00E94FE15EDA14E2F50E0F7
:10485000FA01EE5CFE4FE491F0E0EE0FFF1FE25034
:10486000FF4FA591B491BC8FAB8FECA12E2F30E000
:10487000F901EE5CFE4FE491F0E0EE0FFF1FE25015
:10488000FF4F859194919A8F898F48585E4FFA0116
:1048900094919FA328583E4FF90184918EA38C9147
:1048A000909598239C93E98DFA8D90818EA18095A7
:1048B00089238083ED8DFE8D908188A58095892345
:1048C00080838BA1882309F161E00E94FE158BA1F2
:1048D00061E00E94B11664EF71E080E090E00E9418
:1048E00043158BA160E00E94B11664EF71E080E097
:1048F00090E00E9443158BA161E00E94B11664EF25
:1049000071E080E090E00E9443150115110521F04F
:10491000CE01B8010E948623DF91CF911F910F91A4
:1049200008951F93CF93DF93EC01162F6FEF76E07E
:104930000E94D423112351F4CE016AE377E00E9450
:10494000862382E08AA781E08BA705C0CE0167E4B9
:1049500077E00E948623CE0164E577E00E948623FB
:10496000123041F4CE0166E30E945B21CE0160EC7F
:104970000E9484211F8BDF91CF911F910895DF92B8
:10498000EF92FF920F931F938C01F62EE42ED22EFE
:1049900060E870E040EA50E00E94031D8EE396E07C
:1049A000F80191838083F1A2E2A2D3A281E0808FFB
:1049B00015A214A21F910F91FF90EF90DF90089520
:1049C000882319F48CB5806202C08CB58F7D8CBDB4
:1049D00008959CB5937F982B9CBD08952CB5382FD6
:1049E00033702C7F322B3CBD2DB590E0959587958B
:1049F0009595879581702E7F822B8DBD089584E3D8
:104A000061E00E94FE1583E361E00E94FE1585E3EC
:104A100061E00E94FE1584E360E00E94B11683E32A
:104A200060E00E94B11685E361E00E94B1168CB58A
:104A300080618CBD8CB580648CBD0895AF92BF92AF
:104A4000CF92DF92EF92FF920F931F93CF93DF935A
:104A5000EC01A880B980CA80DB80A114B104C10434
:104A6000D10441F484E2A82E89EDB82E8BE5C82E3E
:104A700087E0D82EC601B5012DE133EF41E050E0CB
:104A80000E94002627EA31E440E050E00E948C2595
:104A90007B018C01C601B5012DE133EF41E050E00F
:104AA0000E940026CA01B9012CEE34EF4FEF5FEFF0
:104AB0000E948C256E0D7F1D801F911F97FF04C0E3
:104AC0006150704080409048688379838A839B83DB
:104AD0009B01AC015F77B901CA01DF91CF911F91B2
:104AE0000F91FF90EF90DF90CF90BF90AF9008951F
:104AF0000E941E2508958BE095E00E941E250895D2
:104B000060930B0570930C0580930D0590930E0533
:104B10000895F8940C942126629FD001739FF001B0
:104B2000829FE00DF11D649FE00DF11D929FF00D3D
:104B3000839FF00D749FF00D659FF00D9927729F74
:104B4000B00DE11DF91F639FB00DE11DF91FBD01FF
:104B5000CF0111240895991B79E004C0991F96177D
:104B600008F0961B881F7A95C9F780950895AA1BAF
:104B7000BB1B51E107C0AA1FBB1FA617B70710F048
:104B8000A61BB70B881F991F5A95A9F7809590957A
:104B9000BC01CD01089597FB092E07260AD077FDA9
:104BA00004D0E5DF06D000201AF4709561957F4FA0
:104BB0000895F6F7909581959F4F0895A1E21A2EDA
:104BC000AA1BBB1BFD010DC0AA1FBB1FEE1FFF1FB1
:104BD000A217B307E407F50720F0A21BB30BE40B01
:104BE000F50B661F771F881F991F1A9469F7609548
:104BF0007095809590959B01AC01BD01CF01089502
:104C000097FB092E05260ED057FD04D0D7DF0AD01A
:104C1000001C38F450954095309521953F4F4F4FEB
:104C20005F4F0895F6F790958095709561957F4F49
:104C30008F4F9F4F0895EE0FFF1F0590F491E02DC9
:064C40001994F894FFCF67
:104C460050726576696F757320706F696E74733A0A
:104C56002000656E656D6965734B696C6C65643AB9
:104C66002000636C65617254696D653A2000546F6B
:104C760074616C20506F696E74733A2000696E69B6
:104C86007469616C697A656421004552524F5221FC
:104C96002062696E6172795365617263680053744C
:104CA6006172742071736F727400456E64206F6652
:104CB6002071736F7274004552524F52212030009A
:104CC6004552524F52212032004552524F52212016
:104CD6003400626F6D62436F756E743A2000426FE6
:104CE6006D622000206973206163746976652E0009
:104CF60053657474696E6720626F6D620020657813
:104D0600706C6F64696E672E0054696D65207369F7
:104D16006E6365207365743A20004D6170206C6F78
:104D26006164656400546F70206F66206B696C6CFB
:104D3600456E656D6965730043656E7465722045E1
:104D460072726F723A2062696E6172792073656160
:104D5600726368203D202D31006C656674204572B3
:104D6600726F723A2062696E617279207365617240
:104D76006368203D202D3100726967687420457292
:104D8600726F723A2062696E617279207365617220
:104D96006368203D202D31007570204572726F7258
:104DA6003A2062696E617279207365617263682068
:104DB6003D202D3100646F776E204572726F723A16
:104DC6002062696E61727920736561726368203D45
:104DD600202D3100456E64206F66206B696C6C4532
:104DE6006E656D696573004C6576656C20436C6510
:104DF60061726564210050726573732073656C651A
:104E0600637420746F20676F20746F207468652048
:104E16006E657874206C6576656C2E00506C6179D1
:104E26002047616D652100496E73747275637469FC
:104E36006F6E7300426F6D6265726D616E2100590F
:104E46004F55204449454400596F757220706F696B
:104E56006E74733A200050726573732073656C65C7
:104E6600637420746F2072657475726E20746F207F
:104E7600737461727400486F7720746F20706C6170
:104E8600793A0055736520746865206A6F79737482
:104E960069636B20746F206D6F76652E00507265A6
:104EA600737320746865206A6F79737469636B2005
:104EB600746F206C6179206120626F6D62210042FF
:104EC6006F6D62732063616E2064657374726F79AF
:104ED60020747265657320616E6420656E656D6908
:104EE60065732E00536F6D65207472656573206D52
:104EF600617920636F6E7461696E20706F77657279
:104F06007570732E0044657374726F7920616C6CD2
:104F16002074686520656E656D69657320746F2001
:104F260077696E210050726573732073656C6563D3
:104F36007420746F2072657475726E20746F20739E
:104F460074617274206D656E752E0001000000019B
:104F56000101010101020201010101020203020134
:104F6600010102020202020201020202020203021D
:104F7600020202030202020202020202020202020A
:104F860002010202020302020101010103030101FF
:104F960001010101010101010101020201010202F7
:104FA60001010201010101020101010101010101E9
:104FB60001010101010101010101020101010102D9
:104FC60001010202010102020101010101010101C7
:104FD60001010101010101010101010201010202B8
:104FE60001010201010101020101010102010101A8
:104FF6000101010101020101010102020101010297
:105006000101010201010201010101010101010188
:105016000101010101010101010102010102010178
:105026000101010201010201010101010201010266
:105036000101010201010201010102010102010156
:105046000101010201010201010101010101010148
:10505600010100000000E2193A1B7619A719871909
:10506600D01900000000AC203A1B391B391E391F2D
:10507600551FE51E741FA91F1A2100000000AC2051
:105086003A1BF021391E2E228022E51EED22D22265
:025096007E2377
:00000001FF
